:100000000C9462000C948A000C948A000C948A0070
:100010000C948A000C948A000C948A000C948A0038
:100020000C948A000C948A000C948A000C948A0028
:100030000C948A000C948A000C948A000C948A0018
:100040000C9423040C948A000C94F1030C94CB03BD
:100050000C948A000C948A000C948A000C948A00F8
:100060000C948A000C948A000000000023002600F3
:10007000290000000008000201000003040700003E
:1000800000000000000000000000250028002B00F8
:1000900000000000240027002A00040404040404D3
:1000A0000404020202020202030303030303010227
:1000B00004081020408001020408102001020408F6
:1000C00010206D0411241FBECFEFD8E0DEBFCDBFDE
:1000D00012E0A0E0B1E0E4E4FDE002C005900D9282
:1000E000AA3DB107D9F723E0AAEDB2E001C01D9205
:1000F000AF39B207E1F710E0C2E6D0E004C02197C3
:10010000FE010E949506C136D107C9F70E94B804C6
:100110000C94A0060C94000090E0FC01E255FF4F07
:100120002491FC01E656FF4F8491882399F090E0DA
:10013000880F991FFC01E057FF4FA591B491FC0176
:10014000EA57FF4F859194918FB7F894EC91E22B89
:10015000EC938FBF0895CF92DF92EF92FF920F93AF
:100160001F93CF93DF936C017A018B01C0E0D0E045
:10017000CE15DF0589F0D8016D918D01D601ED9185
:10018000FC910190F081E02DC6010995892B11F4B5
:100190007E0102C02196ECCFC701DF91CF911F9164
:1001A0000F91FF90EF90DF90CF900895FC01538D59
:1001B000448D252F30E0842F90E0821B930B541741
:1001C00010F0CF96089501970895FC01918D828DCE
:1001D000981761F0828DDF01A80FB11D5D968C919B
:1001E000928D9F5F9F73928F90E008958FEF9FEFA6
:1001F0000895FC01918D828D981731F0828DE80F62
:10020000F11D858D90E008958FEF9FEF0895FC011B
:10021000918D228D892F90E0805C9F4F821B9109E8
:100220008F73992708958AEE92E00E94070121E0DA
:10023000892B09F420E0822F0895FC01848DDF01D1
:10024000A80FB11DA35ABF4F2C91848D90E0019649
:100250008F739927848FA689B7892C93A089B18938
:100260008C9180648C93938D848D981306C0028842
:10027000F389E02D80818F7D80830895EF92FF9236
:100280000F931F93CF93DF93EC0181E0888F9B8DB9
:100290008C8D981305C0E889F989808185FD24C07B
:1002A000F62E0B8D10E00F5F1F4F0F731127E02EFE
:1002B0008C8DE8120CC00FB607FCFACFE889F989DB
:1002C000808185FFF5CFCE010E941D01F1CF8B8D7E
:1002D000FE01E80FF11DE35AFF4FF0820B8FEA8910
:1002E000FB898081806207C0EE89FF896083E8898D
:1002F000F98980818064808381E090E0DF91CF91F3
:100300001F910F91FF90EF900895CF93DF93EC0131
:10031000888D8823C9F0EA89FB89808185FD05C025
:10032000A889B9898C9186FD0FC00FB607FCF5CF5F
:10033000808185FFF2CFA889B9898C9185FFEDCFA7
:10034000CE010E941D01E7CFDF91CF91089580E09B
:1003500090E0892B29F00E94130181110C94000078
:100360000895833081F028F4813099F08230A1F033
:1003700008958730A9F08830B9F08430D1F48091A5
:1003800080008F7D03C0809180008F7780938000F4
:10039000089584B58F7702C084B58F7D84BD08959C
:1003A0008091B0008F7703C08091B0008F7D8093E3
:1003B000B00008951F93CF93DF93282F30E0F90109
:1003C000EE58FF4F8491F901E255FF4FD491F901A6
:1003D000E656FF4FC491CC23C9F0162F81110E941D
:1003E000B101EC2FF0E0EE0FFF1FEA57FF4FA59190
:1003F000B4918FB7F894111105C09C91ED2FE09541
:10040000E92302C0EC91ED2BEC938FBFDF91CF91EC
:100410001F9108953FB7F8948091DF029091E00218
:10042000A091E102B091E20226B5A89B05C02F3F42
:1004300019F00196A11DB11D3FBFBA2FA92F982F0A
:100440008827820F911DA11DB11DBC01CD0142E085
:10045000660F771F881F991F4A95D1F70895CF928D
:10046000DF92EF92FF920E940A026B017C010E94D0
:100470000A02DC01CB018C199D09AE09BF09883E37
:100480009340A105B10598F3FF90EF90DF90CF90D6
:10049000089560E082E00E94DA0160E083E00E945B
:1004A000DA0160E08DE00E94DA0160E08CE00E94F9
:1004B000DA0161E08BE00C94DA01CF93DF93EC0179
:1004C00060E08E810E94DA0161E08E810E94DA0193
:1004D00060E08E810E94DA018BE891E00197F1F7EC
:1004E000DF91CF910895CF92DF92EF92FF920F9319
:1004F0001F93CF93DF937C016C0187E0C80ED11C62
:10050000C0E0D0E0062F10E0B8010C2E02C07595B7
:1005100067950A94E2F76170F60181916F010E947C
:10052000DA012196C430D10579F7C701DF91CF9167
:100530001F910F91FF90EF90DF90CF900C945D0290
:10054000CF92DF92EF92FF920F931F93CF93DF939F
:10055000EC01F62E642F8C810E94DA018D818F3F91
:1005600019F060E00E94DA018F850F2D10E084FF02
:1005700025C06E0187E0C80ED11CE12CF12CB8011A
:100580000E2C02C0759567950A94E2F76170F6012A
:1005900081916F010E94DA01FFEFEF1AFF0A88E0F4
:1005A000E816F10461F7CE01DF91CF911F910F9111
:1005B000FF90EF90DF90CF900C945D02B80184E043
:1005C000759567958A95E1F7CE010E9473026F2DAC
:1005D000CE01DF91CF911F910F91FF90EF90DF90AF
:1005E000CF900C94730241E00E94A00281E090E061
:1005F000089540E00C94A002EF92FF920F931F9396
:10060000CF93DF93EC01623018F08F8588608F877D
:100610006B8B1C8A80E48D8B80E18E8B80E58F8BC9
:100620008C810E948C008D818F3F11F00E948C0084
:100630008E810E948C007E0187E0E80EF11C00E0B4
:1006400010E08F8584FD03C084E090E002C088E064
:1006500090E00817190744F4F70181917F010E9487
:100660008C000F5F1F4FEDCF8BE39DE00197F1F7FB
:1006700060E08C810E94DA0160E08E810E94DA01E4
:100680008D818F3F19F060E00E94DA016F8564FD73
:100690001DC063E0CE010E9473020BE416E4C801A2
:1006A0000197F1F763E0CE010E947302C801019740
:1006B000F1F763E0CE010E94730283E592E00197B7
:1006C000F1F762E0CE010E94730216C06062CE01B3
:1006D0000E94F9028BE496E40197F1F76F8560625E
:1006E000CE010E94F90283E592E00197F1F76F8550
:1006F0006062CE010E94F9026F856062CE010E94A5
:10070000F90284E0888B6CE0CE010E94F90261E07E
:10071000CE010E94F9028BE39FE10197F1F782E09D
:10072000898B66E0CE01DF91CF911F910F91FF90F1
:10073000EF900C94F902089580E090E008950E94F3
:100740009B066115710579F0FB0101900020E9F726
:100750003197AF01461B570BDC01ED91FC910280F4
:10076000F381E02D099480E090E008956EE171E05E
:100770008AEE92E00C94A103CF93DF93BC018AEE42
:1007800092E00E94A103EC010E94B6038C0F9D1F12
:10079000DF91CF9108951F920F920FB60F921124FF
:1007A0002F933F934F935F936F937F938F939F9379
:1007B000AF93BF93EF93FF938AEE92E00E941D01E7
:1007C000FF91EF91BF91AF919F918F917F916F9129
:1007D0005F914F913F912F910F900FBE0F901F90FF
:1007E00018951F920F920FB60F9211242F938F938B
:1007F0009F93EF93FF93E091FA02F091FB028081C7
:10080000E0910003F091010382FD12C0908180917C
:1008100003038F5F8F7320910403821751F0E091DF
:100820000303F0E0E651FD4F958F8093030301C071
:100830008081FF91EF919F918F912F910F900FBE2B
:100840000F901F9018951F920F920FB60F921124C0
:100850002F933F938F939F93AF93BF938091DB022E
:100860009091DC02A091DD02B091DE023091DA02BB
:1008700023E0230F2D3720F40196A11DB11D05C0E3
:1008800026E8230F0296A11DB11D2093DA02809362
:10089000DB029093DC02A093DD02B093DE02809134
:1008A000DF029091E002A091E102B091E202019694
:1008B000A11DB11D8093DF029093E002A093E1029D
:1008C000B093E202BF91AF919F918F913F912F9191
:1008D0000F900FBE0F901F901895EAEEF2E0138272
:1008E000128288EE93E0A0E0B0E084839583A68333
:1008F000B78384E091E09183808385EC90E09587D5
:10090000848784EC90E09787868780EC90E0918BD9
:10091000808B81EC90E0938B828B82EC90E0958BC6
:10092000848B86EC90E0978B868B118E128E138EC3
:10093000148EE7E8F3E01382128286E191E091835E
:10094000808388E084838FEF858389E0868384E0D9
:10095000878385E0808786E0818787E082871386AA
:10096000148615861686178661E0CF010C94FC026A
:10097000789484B5826084BD84B5816084BD85B57A
:10098000826085BD85B5816085BD80916E00816086
:1009900080936E001092810080918100826080932C
:1009A000810080918100816080938100809180002E
:1009B0008160809380008091B10084608093B10059
:1009C0008091B00081608093B00080917A00846053
:1009D00080937A0080917A00826080937A0080917F
:1009E0007A00816080937A0080917A008068809399
:1009F0007A001092C10082E00E948C0083E00E9485
:100A00008C008DE00E948C008CE00E948C008BE0BA
:100A10000E948C000E944902E091FA02F091FB02D0
:100A200082E08083E091F602F091F7021082E0917B
:100A3000F802F091F9028FEC808310920203E091AA
:100A4000FE02F091FF0286E08083E091FC02F091CB
:100A5000FD02808180618083E091FC02F091FD02C3
:100A6000808188608083E091FC02F091FD028081AA
:100A700080688083E091FC02F091FD0280818F7D8F
:100A8000808381E291E00E94BC030E94B60385E36B
:100A900091E00E94BC0386E591E00E94BC0389E7D7
:100AA00091E00E94BC0389EA91E00E94BC038AECB9
:100AB00091E00E94BC030E94B60362E087E893E0E5
:100AC0000E94FC02E1E080919A038111E0E0E1954F
:100AD000F0E0E957FC4F6489606887E893E00E9482
:100AE000F90262EF71E087E893E00E94A10335E725
:100AF000E32E30E0F32E41EBC42E40E0D42E5DE92E
:100B0000A52E50E0B52EC1E0D0E08AEE92E00E9422
:100B10000701892B09F406C18AEE92E00E94E500E4
:100B2000182F8093E90260E08BE00E94DA01113314
:100B300051F58FEF91E00E94BC0360E083E00E94DA
:100B4000DA01D093E802C093E7020091E702109126
:100B5000E802083E83E018079CF461E082E00E940E
:100B6000DA010E942F0260E082E00E94DA010E9416
:100B70002F020F5F1F4F1093E8020093E702E5CFAB
:100B800084E292E0C3C0123339F585E392E00E941B
:100B9000BC0361E083E00E94DA01D093E802C093D5
:100BA000E7020091E7021091E802083EE3E01E0729
:100BB0003CF761E082E00E94DA010E942F0260E0CF
:100BC00082E00E94DA010E942F020F5F1F4F1093F4
:100BD000E8020093E702E5CF133381F58DE592E05B
:100BE0000E94BC0360E083E00E94DA0161E08DE0D6
:100BF0000E94DA0161E08CE00E94DA01D093E80201
:100C0000C093E7020091E7021091E802083EF3E08A
:100C10001F070CF0B5CF61E082E00E94DA010E946C
:100C20002F0260E082E00E94DA010E942F020F5F33
:100C30001F4F1093E8020093E702E4CF143309F04A
:100C40006AC08FE792E00E94BC03D093E802C09391
:100C5000E7020091E7021091E802053011050CF05F
:100C600053C0F7018491F6018490F5019490992086
:100C7000A9F081110E94B101892D90E0880F991F80
:100C800088599F4FFC01A591B4918C91882231E045
:100C900020E009F430E0832F922F02C080E090E042
:100CA0009093E6028093E502019711F460E001C0A1
:100CB00061E083E00E94DA01D093E402C093E30292
:100CC0008090E3029090E40288EE881683E0980614
:100CD000A4F461E082E00E94DA010E942F0260E049
:100CE00082E00E94DA010E942F02FFEF8F1A9F0A12
:100CF0009092E4028092E302E3CF0F5F1F4F1093C4
:100D0000E8020093E702A5CF8FEA92E00E94BC03BD
:100D10000E94B60304C081EC92E00E94BC030E94D2
:100D20004902F3CE0E94A701F0CEEE0FFF1F0590FF
:100D3000F491E02D099481E090E0F8940C94A006E1
:040D4000F894FFCF55
:100D4400000000003E01AB00D60085010701E5006C
:100D5400F90000000000F302AB009C039B030D0AA2
:100D640000426567696E206D6F746F7220636F6EE9
:100D740074726F6C00456E746572206E756D626579
:100D84007220666F7220636F6E74726F6C206F7066
:100D940074696F6E3A00312E205475726E2061743E
:100DA4002064656661756C74206D6963726F737419
:100DB4006570206D6F64652E00322E205265766555
:100DC40072736520646972656374696F6E206174FF
:100DD4002064656661756C74206D6963726F7374E9
:100DE4006570206D6F64652E00332E205475726E0D
:100DF40020617420312F387468206D6963726F73B9
:100E0400746570206D6F64652E00342E20537465F4
:100E14007020666F727761726420616E64207265FF
:100E2400766572736520646972656374696F6E7345
:100E34002E00466C6F77205068616E746F6D004DA4
:100E44006F76696E6720666F727761726420617471
:100E54002064656661756C742073746570206D6FB1
:100E640064652E00456E746572206E6577206F7020
:100E740074696F6E004D6F76696E6720696E2072BB
:100E84006576657273652061742064656661756C4E
:100E9400742073746570206D6F64652E00537465DF
:100EA4007070696E6720617420312F387468206D0A
:100EB4006963726F73746570206D6F64652E004191
:100EC4006C7465726E617465206265747765656EB5
:100ED400207374657070696E6720666F72776172D3
:100EE4006420616E6420726576657273652E0045B8
:100EF4006E746572206E6577206F7074696F6E3AD8
:100F040000496E76616C6964206F7074696F6E203D
:0A0F1400656E74657265642E0000BE
:00000001FF
