:100000000C946D000C9495000C9495000C94950044
:100010000C9495000C9495000C9495000C9495000C
:100020000C9495000C9495000C9495000C949500FC
:100030000C9495000C9495000C9495000C949500EC
:100040000C9416070C9495000C9437050C94FE0242
:100050000C9495000C9495000C9495000C949500CC
:100060000C9495000C949500AC03B203B803BE0346
:10007000C403CA03D003010508050F0516051D05B5
:100080003405240534052B05000000002500280058
:100090002B0000000000240027002A0004040404B0
:1000A0000404040402020202020203030303030322
:1000B00001020408102040800102040810200102FF
:1000C00004081020000000080002010000030407DB
:1000D0000000000000000000B60A11241FBECFEF90
:1000E000D8E0DEBFCDBF11E0A0E0B1E0E6E5F3E28D
:1000F00002C005900D92AA3AB107D9F722E0AAEA08
:10010000B1E001C01D92AE3AB207E1F710E0CDE6D2
:10011000D0E004C02197FE010E949E11CC36D10789
:10012000C9F70E94630B0C94A9110C940000CF92A4
:10013000DF92EF92FF920F931F93CF93DF936C01A7
:100140007A018B01C0E0D0E0CE15DF0589F0D8013F
:100150006D918D01D601ED91FC910190F081E02D22
:10016000C6010995892B11F47E0102C02196ECCFBE
:10017000C701DF91CF911F910F91FF90EF90DF901A
:10018000CF9008958AEA91E00E94550321E0892BDF
:1001900009F420E0822F0895643008F063E0909124
:1001A000A002691710F06FEF690FE62FF0E0E35738
:1001B000FD4F9489682F690F60688DE892E00C9478
:1001C000E6070E94A4116115710579F0FB01019009
:1001D0000020E9F73197AF01461B570BDC01ED9189
:1001E000FC910280F381E02D099480E090E0089575
:1001F0004F925F926F927F92EF92FF920F931F93B5
:10020000CF93DF93CDB7DEB7A1970FB6F894DEBFDB
:100210000FBECDBF7C01FA01CB0119A2223008F438
:100220002AE08E010F5D1F4F422E512C612C712C44
:10023000BF01A30192010E945D11F901CA010150A1
:1002400011096A3014F4605D01C0695CD8016C93D7
:10025000232B242B252B61F7B801C7010E94E30053
:10026000A1960FB6F894DEBF0FBECDBFDF91CF9140
:100270001F910F91FF90EF907F906F905F904F9044
:1002800008954F925F926F927F928F929F92AF925A
:10029000BF92CF92DF92EF92FF92CF93DF93EC0168
:1002A0006A017B01B22E9A01AB01C701B6010E941F
:1002B0004311882319F068E371E027C02601370154
:1002C000E89477F82FEF3FEF4FE75FE7C301B20104
:1002D0000E94431181110DC02FEF3FEF4FE75FE701
:1002E000C301B2010E942C0F18161CF46CE371E0DC
:1002F0000CC02FEF3FEF4FE75FE4C701B6010E944C
:100300008B1018169CF460E471E0CE01DF91CF9160
:10031000FF90EF90DF90CF90BF90AF909F908F9025
:100320007F906F905F904F900C94E3002FEF3FEF22
:100330004FE75FECC701B6010E942C0F87FDE3CFAA
:1003400020E030E0A901C701B6010E942C0F87FF11
:100350000EC0E881F9810190F081E02D6DE2CE01BF
:1003600009954C01F7FAF094F7F8F09402C0812C4B
:10037000912CA12C60E070E080E09FE3AB1441F091
:1003800020E030E040E251E40E94310FA394F6CF28
:100390009B01AC01C701B6010E94C00E2B013C01BC
:1003A0000E94AA0F6B017C010E94D90F9B01AC0136
:1003B000C301B2010E94BF0E2B013C012AE0B7012C
:1003C000A601CE010E94F8007C01E80CF91CBB20BC
:1003D00051F0E881F9810190F081E02D6EE2CE01CB
:1003E0000995E80EF91EDB2CDD2029F120E030E034
:1003F00040E251E4C301B2010E9490102B013C0184
:100400000E94AA0F4B01A12CB12C2AE0B501A40136
:10041000CE010E94F800E80EF91EC501B4010E9449
:10042000D90F9B01AC01C301B2010E94BF0E2B0189
:100430003C01DA94D9CFC701DF91CF91FF90EF90C3
:10044000DF90CF90BF90AF909F908F907F906F90F4
:100450005F904F900895CF93DF93AB01BC0122E0F2
:100460008AEA91E00E944101EC0164E471E08AEAC9
:1004700091E00E94E3008C0F9D1FDF91CF910895C2
:1004800090E0FC01E055FF4F2491FC01E456FF4F42
:100490008491882399F090E0880F991FFC01EE5613
:1004A000FF4FA591B491FC01E857FF4F85919491BE
:1004B0008FB7F894EC91E22BEC938FBF0895EF92F5
:1004C000FF920F931F93CF93DF93EC01623018F0EC
:1004D0008F8588608F876B8B1C8A80E48D8B80E191
:1004E0008E8B80E58F8B8C810E9440028D818F3FA7
:1004F00011F00E9440028E810E9440027E0187E03E
:10050000E80EF11C00E010E08F8584FD03C084E05C
:1005100090E002C088E090E00817190744F4F70162
:1005200081917F010E9440020F5F1F4FEDCF8BE34F
:100530009DE00197F1F760E08C810E94F30560E097
:100540008E810E94F3058D818F3F19F060E00E943B
:10055000F3056F8564FD1DC063E0CE010E94600756
:100560000BE416E4C8010197F1F763E0CE010E94A5
:100570006007C8010197F1F763E0CE010E946007B0
:1005800083E592E00197F1F762E0CE010E946007F7
:1005900016C06062CE010E94E6078BE496E40197E4
:1005A000F1F76F856062CE010E94E60783E592E075
:1005B0000197F1F76F856062CE010E94E6076F85B3
:1005C0006062CE010E94E60784E0888B6CE0CE0179
:1005D0000E94E60761E0CE010E94E6078BE39FE1FF
:1005E0000197F1F782E0898B66E0CE01DF91CF9130
:1005F0001F910F91FF90EF900C94E6071F920F92BE
:100600000FB60F9211242F933F934F935F936F93E5
:100610007F938F939F93AF93BF93EF93FF938AEA58
:1006200091E00E946905FF91EF91BF91AF919F9179
:100630008F917F916F915F914F913F912F910F908B
:100640000FBE0F901F901895FC01538D448D252FE0
:1006500030E0842F90E0821B930B541710F0CF965C
:10066000089501970895FC01918D828D981761F08E
:10067000828DDF01A80FB11D5D968C91928D9F5FD9
:100680009F73928F90E008958FEF9FEF0895FC0184
:10069000918D828D981731F0828DE80FF11D858D37
:1006A00090E008958FEF9FEF0895FC01918D228DCA
:1006B000892F90E0805C9F4F821B91098F7399274F
:1006C000089580E090E0892B29F00E94C2008111FA
:1006D0000C94000008953FB7F8948091AA0290917D
:1006E000AB02A091AC02B091AD0226B5A89B05C0AB
:1006F0002F3F19F00196A11DB11D3FBFBA2FA92FA1
:10070000982F8827820F911DA11DB11DBC01CD011D
:1007100042E0660F771F881F991F4A95D1F7089509
:10072000089580E090E00895CF93DF9347705527B8
:1007300066277727FA013197EC01A881B981E73064
:10074000F10520F4EC5CFF4F0C949E111496ED9192
:10075000FC91159761E029C01496ED91FC911597D5
:1007600065E023C01496ED91FC91159764E01DC0DF
:100770001496ED91FC91159766E017C01496ED91D3
:10078000FC91159762E011C01496ED91FC911597BC
:100790006AE00BC01496ED91FC91159768E005C0D6
:1007A0001496ED91FC91159769E0DF91CF91099432
:1007B000CF93DF93EC01CB01BA0126E030E040E0BB
:1007C00050E00E947F11623071058105910559F159
:1007D0008CF46115710581059105F1F061307105A9
:1007E00081059105C1F5E881F9810480F581E02D4D
:1007F00065E02DC0643071058105910511F1D4F0DB
:10080000653071058105910531F5E881F981048034
:10081000F581E02D66E01BC0E881F9810480F58157
:10082000E02D64E014C0E881F9810480F581E02DB9
:1008300061E00DC0E881F9810480F581E02D63E07D
:1008400006C0E881F9810480F581E02D62E0CE01E7
:10085000DF91CF910994DF91CF910895437055278F
:1008600066277727DC01ED91FC910480F581E02D6E
:10087000423051056105710571F043305105610544
:10088000710559F0413051056105710511F065E0C0
:1008900005C066E003C06AE001C069E00994CF9337
:1008A000DF93EC01CB01BA0123E030E040E050E0FF
:1008B0000E947F11613071058105910581F06230E0
:1008C00071058105910591F0672B682B692BC1F4A7
:1008D000E881F9810480F581E02D64E00DC0E881B4
:1008E000F9810480F581E02D61E006C0E881F9819D
:1008F0000480F581E02D62E0CE01DF91CF91099473
:10090000DF91CF9108954370552766277727DC0143
:10091000ED91FC910480F581E02D42305105610597
:10092000710571F0433051056105710559F0413091
:1009300051056105710511F062E005C063E003C077
:1009400061E001C060E00994CF93DF93EC01E8819E
:10095000F9810480F581E02D8A81811102C060E077
:1009600001C062E0CE010995E881F9810480F5813A
:10097000E02D8A81811102C061E001C063E0CE01F7
:1009800009958CA59DA58230910538F0880F991F97
:10099000880F991F05970197F1F7E881F981048085
:1009A000F581E02D8A81811102C060E001C062E022
:1009B000CE01DF91CF910994CF93DF93EC0120E03A
:1009C00030E0A9016C897D898E899F890E948B10F6
:1009D00018161CF4E8A9F9A902C0EAA9FBA9DF913D
:1009E000CF9109940F931F93DC011396EC910E2F76
:1009F00010E009301105C0F5F801E55CFF4F0C94DB
:100A00009E11DC01ED91FC910084F185E02D29C05F
:100A1000DC01ED91FC910284F385E02D22C0DC0124
:100A2000ED91FC910484F585E02D1BC0DC01ED9176
:100A3000FC910684F785E02D14C0DC01ED91FC915A
:100A40000088F189E02D0DC0DC01ED91FC91028858
:100A5000F389E02D06C0DC01ED91FC910488F58955
:100A6000E02D1F910F9109941F910F9108951F92EE
:100A70000F920FB60F9211242F938F939F93EF93A2
:100A8000FF93E091BA01F091BB018081E091C00138
:100A9000F091C10182FD12C090818091C3018F5FEE
:100AA0008F732091C401821751F0E091C301F0E0EF
:100AB000E655FE4F958F8093C30101C08081FF9161
:100AC000EF919F918F912F910F900FBE0F901F90DC
:100AD0001895FC01848DDF01A80FB11DA35ABF4FEB
:100AE0002C91848D90E001968F739927848FA6892D
:100AF000B7892C93A089B1898C9180648C93938D54
:100B0000848D981306C00288F389E02D80818F7D43
:100B100080830895EF92FF920F931F93CF93DF93FB
:100B2000EC0181E0888F9B8D8C8D981305C0E8893E
:100B3000F989808185FD24C0F62E0B8D10E00F5FB2
:100B40001F4F0F731127E02E8C8DE8120CC00FB6CB
:100B500007FCFACFE889F989808185FFF5CFCE01BE
:100B60000E946905F1CF8B8DFE01E80FF11DE35A5C
:100B7000FF4FF0820B8FEA89FB898081806207C07A
:100B8000EE89FF896083E889F989808180648083A8
:100B900081E090E0DF91CF911F910F91FF90EF9056
:100BA0000895CF93DF93EC01888D8823C9F0EA89FB
:100BB000FB89808185FD05C0A889B9898C9186FD56
:100BC0000FC00FB607FCF5CF808185FFF2CFA88953
:100BD000B9898C9185FFEDCFCE010E946905E7CFE1
:100BE000DF91CF91089590E0FC01EC53FF4F3491D9
:100BF000FC01E055FF4F2491FC01E456FF4FE491C6
:100C0000EE2309F43BC0332339F1333091F038F44B
:100C10003130A9F0323001F584B58F7D12C0373004
:100C200091F03830A1F03430B9F4809180008F7D9C
:100C300003C0809180008F77809380000DC084B5C1
:100C40008F7784BD09C08091B0008F7703C08091F9
:100C5000B0008F7D8093B000F0E0EE0FFF1FE857EB
:100C6000FF4FA591B4918FB7F894EC91611103C037
:100C700020952E2301C02E2B2C938FBF0895CF9348
:100C8000DF93EC0160E08E810E94F30561E08E81CC
:100C90000E94F30560E08E810E94F3058BE891E0ED
:100CA0000197F1F7DF91CF910895CF93DF93FC0186
:100CB0002381222329F1EC0184810E9440028D814D
:100CC0000E9440028B81843011F0883029F48E819B
:100CD0000E9440028F8105C0833011F0863019F4E4
:100CE0008E810E9440028FA58F3F51F00E944002EA
:100CF0006EA581E068278FA5DF91CF910C94F30555
:100D0000DF91CF910895CF93DF93FC0123812223BC
:100D1000A1F0EC010190F081E02D0480F581E02D3F
:100D200060E009958FA58F3F41F00E9440026EA5BB
:100D30008FA5DF91CF910C94F305DF91CF910895AA
:100D4000CF92DF92EF92FF920F931F93CF93DF9397
:100D5000FC012381243041F0283031F0233031F080
:100D6000263021F012E003C014E001C013E0EC01D2
:100D70002896E12CF12CC62ED12C01E0C6010E2CB8
:100D800002C0959587950A94E2F7688180FD6027F7
:100D9000FE01349780810E94F305FFEFEF1AFF0AEE
:100DA0002196E11658F3DF91CF911F910F91FF909B
:100DB000EF90DF90CF9008958F929F92AF92BF9265
:100DC000CF92DF92EF92FF926B017C010E946B0346
:100DD0004B015C01C114D104E104F104F1F00E9463
:100DE0006B03DC01CB0188199909AA09BB09883E6C
:100DF0009340A105B10570F321E0C21AD108E108C2
:100E0000F10888EE880E83E0981EA11CB11CC11465
:100E1000D104E104F10419F7DDCFFF90EF90DF90EA
:100E2000CF90BF90AF909F908F9008951F920F9298
:100E30000FB60F9211242F933F938F939F93AF93ED
:100E4000BF938091A6029091A702A091A802B091B1
:100E5000A9023091A50223E0230F2D3720F401963B
:100E6000A11DB11D05C026E8230F0296A11DB11DCD
:100E70002093A5028093A6029093A702A093A802B4
:100E8000B093A9028091AA029091AB02A091AC020A
:100E9000B091AD020196A11DB11D8093AA0290935D
:100EA000AB02A093AC02B093AD02BF91AF919F9102
:100EB0008F913F912F910F900FBE0F901F9018951B
:100EC000CF92DF92EF92FF920F931F93CF93DF9316
:100ED0007C016C0187E0C80ED11CC0E0D0E0062F79
:100EE00010E0B8010C2E02C0759567950A94E2F7E0
:100EF0006170F60181916F010E94F3052196C43063
:100F0000D10579F7C701DF91CF911F910F91FF9024
:100F1000EF90DF90CF900C943F06CF92DF92EF924C
:100F2000FF920F931F93CF93DF93EC01F62E642F64
:100F30008C810E94F3058D818F3F19F060E00E9443
:100F4000F3058F850F2D10E084FF25C06E0187E02B
:100F5000C80ED11CE12CF12CB8010E2C02C07595E5
:100F600067950A94E2F76170F60181916F010E9422
:100F7000F305FFEFEF1AFF0A88E0E816F10461F7C6
:100F8000CE01DF91CF911F910F91FF90EF90DF90F5
:100F9000CF900C943F06B80184E0759567958A95CB
:100FA000E1F7CE010E9460076F2DCE01DF91CF9156
:100FB0001F910F91FF90EF90DF90CF900C946007FE
:100FC00041E00E948D0781E090E0089540E00C949C
:100FD0008D072F923F924F925F926F927F928F92E6
:100FE0009F92AF92BF92CF92DF92EF92FF920F93B8
:100FF0001F93CF93DF9300D000D0CDB7DEB71C0195
:10100000FC01C088D188E288F38884859585A6850F
:10101000B785C81AD90AEA0AFB0A648975898689DC
:1010200097899B01AC010E9490104B015C01F1017A
:10103000648D758D868D978D9B01AC010E94C00ECD
:101040009B01AC01C501B4010E94310F0E94A30FA6
:10105000C114D104E104F104A1F4623071058105E9
:1010600091050CF07CC0F10114A215A216A217A2E2
:10107000148A158A168A178A14AA15AA16AA17AAF4
:10108000FFC0F10104A915A926A937A91C141D0444
:101090001E041F0404F510161106120613064CF464
:1010A0006C157D058E059F055CF52281211157C0C9
:1010B00027C0011511052105310509F450C06C1533
:1010C0007D058E059F050CF04AC0F10182818823C1
:1010D00009F445C039C01016110612061306FCF4B7
:1010E0000027112798010C191D092E093F096017C7
:1010F00071078207930724F4F1012281222379F1F9
:101100009B01AC0188279927DC01821B930BA40B60
:10111000B50BF10184AB95ABA6ABB7AB20C0011505
:10112000110521053105D9F08824992454018C1822
:101130009D08AE08BF08681579058A059B057CF4F3
:10114000F101828181110BC0309520951095019598
:101150001F4F2F4F3F4F04AB15AB26AB37ABF10101
:1011600084A895A8A6A8B7A881149104A104B104E5
:1011700091F480AD91ADA2ADB3AD84AF95AFA6AF04
:10118000B7AF81E01C141D041E041F040CF080E0A6
:10119000F101828341C0F101C4ACD5ACE6ACF7AC3F
:1011A000A7019601C701B6010E94C00E2B013C01A8
:1011B000C501B4010E94DB0F20E030E040E850E4BC
:1011C0000E94901020E030E040E85FE30E94C00EF3
:1011D0009B01AC01C301B2010E94310F9B01AC0124
:1011E000C701B6010E94BF0E7B018C01F101E05CDA
:1011F000FF4F60807180C280D3809301A6010E945E
:101200008B10181614F073018601A701B801F101C3
:1012100044AF55AF66AF77AFFFEF8F1A9F0AAF0AA3
:10122000BF0AF10184AA95AAA6AAB7AA24AD35AD32
:1012300046AD57ADCA01B90129833A834B835C831C
:101240000E94AA0FF10164A375A386A397A3298125
:101250003A814B815C8160E074E284E799E40E940A
:10126000310FF101648B758B868B978B2281211155
:1012700007C0DC01CB01B058848B958BA68BB78B54
:101280000F900F900F900F90DF91CF911F910F91C2
:10129000FF90EF90DF90CF90BF90AF909F908F9096
:1012A0007F906F905F904F903F902F9008954F9256
:1012B0005F926F927F928F929F92AF92BF92CF92E6
:1012C000DF92EF92FF92CF93DF93EC016A017B01F3
:1012D00020E030E0A901C701B6010E942C0F87FF72
:1012E00004C0F7FAF094F7F8F0948C8C9D8CAE8CD7
:1012F000BF8CA7019601C501B4010E942C0F882361
:1013000009F449C06CA97DA98EA99FA90E94DB0F91
:101310002B013C01A7019601C501B4010E94310FC8
:101320009B01AC01C301B2010E9490100E94A30F67
:101330006CAB7DAB8EAB9FABA701960160E070E01C
:1013400080E090E40E94310F0E94031126E53EE008
:101350004DE25FE30E94901020E034E244E759E45C
:101360000E94901068AF79AF8AAF9BAFCC8EDD8EB4
:10137000EE8EFF8ECE01DF91CF91FF90EF90DF9048
:10138000CF90BF90AF909F908F907F906F905F9025
:101390004F900C94E907DF91CF91FF90EF90DF9091
:1013A000CF90BF90AF909F908F907F906F905F9005
:1013B0004F900895CF92DF92EF92FF92CF93DF93F9
:1013C000EC018CA19DA1AEA1BFA1892B8A2B8B2BF7
:1013D000D9F10E946B036B017C0188A599A5AAA590
:1013E000BBA5B701A601481B590B6A0B7B0B8CA14F
:1013F0009DA1AEA1BFA1481759076A077B0720F13D
:101400002A818C859D85AE85BF85222321F001969A
:10141000A11DB11D03C00197A109B1098C879D874A
:10142000AE87BF87E881F9814C855D856E857F85B4
:101430000680F781E02DCE010995C8A6D9A6EAA6B7
:10144000FBA6CE010E94E90720E030E0A9016C89EB
:101450007D898E899F890E942C0F8111B2CF488986
:1014600059896A897B898C859D85AE85BF8548179A
:1014700059076A077B0709F0A4CFDF91CF91FF904E
:10148000EF90DF90CF900895CF92DF92EF92FF928E
:101490000F931F93CF93DF93EC016A017B0120E050
:1014A00030E0A901C701B6010E942C0F87FF04C0DC
:1014B000F7FAF094F7F8F094A7019601688D798D0A
:1014C0008A8D9B8D0E942C0F882309F446C0C88EFC
:1014D000D98EEA8EFB8E8E01005C1F4FA70196010C
:1014E00060E074E284E799E40E94310FF8016083C0
:1014F0007183828393838CA99DA9AEA9BFA9181675
:1015000019061A061B064CF56C897D898E899F8900
:101510009B01AC010E9490106B017C016C8D7D8D54
:101520008E8D9F8D9B01AC010E94C00E9B01AC0172
:10153000C701B6010E94310F0E94A30F6CAB7DABB7
:101540008EAB9FABCE01DF91CF911F910F91FF909A
:10155000EF90DF90CF900C94E907DF91CF911F912E
:101560000F91FF90EF90DF90CF9008951F93CF934E
:10157000DF93EAEAF1E01382128288EE93E0A0E0C2
:10158000B0E084839583A683B78384E091E0918360
:10159000808385EC90E09587848784EC90E0978742
:1015A000868780EC90E0918B808B81EC90E0938B30
:1015B000828B82EC90E0958B848B86EC90E0978B0D
:1015C000868B118E128E138E148EEDE8F2E013824C
:1015D000128280E391E09183808388E084831FEF0F
:1015E000158389E08683D4E0D783C5E0C08786E091
:1015F000818787E08287138614861586168617866C
:1016000061E0CF010E945F02E9E4F2E086E191E04F
:101610009183808381E083831486158616861786DE
:10162000108A118A128A138A148A158A168A178ACE
:1016300080E090E0A0E8BFE3808F918FA28FB38F0E
:10164000148E158E168E178E80A391A3A2A3B3A31A
:1016500014A215A216A217A221E030E035A724A7F4
:1016600017A710A611A612A613A62FE0248320E127
:101670002583D683C78316A614AA15AA16AA17AA65
:1016800010AE11AE12AE13AE14AE15AE16AE17AE4E
:101690008093890290938A02A0938B02B0938C026C
:1016A00012821086118612861386CF010E9455067B
:1016B00040E050E060E87FE389E492E0DF91CF9181
:1016C0001F910C945709CF93DF93CDB7DEB7C45465
:1016D000D1090FB6F894DEBF0FBECDBF789484B5A4
:1016E000826084BD84B5816084BD85B5826085BD1E
:1016F00085B5816085BD80916E00816080936E00AC
:10170000109281008091810082608093810080919D
:10171000810081608093810080918000816080934E
:1017200080008091B10084608093B1008091B0000E
:1017300081608093B00080917A00846080937A0009
:1017400080917A00826080937A0080917A00816033
:1017500080937A0080917A00806880937A0010925A
:10176000C1008FE00E94400280E10E94400281E1BE
:101770000E94400282E10E94400283E10E944002F6
:1017800061E083E10E94F30561E081E10E94F305DD
:1017900061E082E10E94F30540E050E06AE774E412
:1017A00089E492E00E94440A40E050E46CE975E468
:1017B00089E492E00E945709E091BA01F091BB01DF
:1017C00082E08083E091B601F091B7011082E09150
:1017D000B801F091B90180E180831092C201E091DB
:1017E000BE01F091BF0186E08083E091BC01F091E1
:1017F000BD01808180618083E091BC01F091BD01D9
:10180000808188608083E091BC01F091BD0180817E
:1018100080688083E091BC01F091BD0180818F7D63
:10182000808367E471E08AEA91E00E94E30060E06F
:1018300070E080E89FE30E942B0264E471E08AEA92
:1018400091E00E94E30062E08DE892E00E945F0276
:1018500060E080E00E94CC0069E571E08DE892E0F4
:101860000E94E30061E085E00E94CC0067E571E042
:101870008DE892E00E94E30022E040E050E060E862
:101880007FE38DE892E00E94410168EB7BE080E01D
:1018900090E00E94DC0661E08DE892E00E94E6079D
:1018A0008BE39FE10197F1F760E080E00E94CC00BC
:1018B00069E671E08DE892E00E94E30061E088E073
:1018C0000E94CC0068E771E08DE892E00E94E3009E
:1018D00080E4F82E06E111E09CE3892E91EF992E29
:1018E000AA24AA94BA2C24EC422E2EE0522E612C6B
:1018F000712CF0927C0080917A00806480937A0051
:1019000080917A0086FDFCCF80917800209179004B
:1019100090E0922B90934802809347028A5892401D
:10192000883C910508F028C21A83098380914B02F4
:101930008B8380914C028C8380914D0290914E025A
:10194000A0914F02B09150028D839E83AF83B887E0
:101950008091510290915202A0915302B091540291
:1019600089879A87AB87BC878091550290915602F0
:10197000A0915702B09158028D879E87AF87B88B90
:101980008091590290915A02A0915B02B0915C0241
:10199000898B9A8BAB8BBC8B80915D0290915E02A0
:1019A000A0915F02B09160028D8B9E8BAF8BB88F40
:1019B0008091610290916202A0916302B0916402F1
:1019C000898F9A8FAB8FBC8F809165029091660250
:1019D000A0916702B09168028D8F9E8FAF8FB8A3E0
:1019E0008091690290916A02A0916B02B0916C02A1
:1019F00089A39AA3ABA3BCA380916D0290916E02C0
:101A0000A0916F02B09170028DA39EA3AFA3B8A75F
:101A10008091710290917202A0917302B091740250
:101A200089A79AA7ABA7BCA780917502909176026F
:101A30009EA78DA7809177028FA78091780288ABAF
:101A40008091790290917A029AAB89AB80917B0266
:101A500090917C029CAB8BAB80917D0290917E0239
:101A6000A0917F02B09180028DAB9EABAFABB8AFBF
:101A70008091810290918202A0918302B0918402B0
:101A800089AF9AAFABAFBCAF8091850290918602CF
:101A9000A0918702B091880221968CAF9DAFAEAF26
:101AA000BFAF21978091890290918A02A0918B0209
:101AB000B0918C0225968CAF9DAFAEAFBFAF25978E
:101AC00040E050E06AE774E4CE0101960E94440AC7
:101AD0001D861E861F86188A198A1A8A1B8A1C8AE6
:101AE0001DAA1EAA1FAA18AE1DA21EA21FA218A6DA
:101AF0001D8A1E8A1F8A188E66E971E08AEA91E0C3
:101B00000E94E3006AE979E989E99EE30E942B02D9
:101B100060E083E10E94F30589899A89AB89BC89D9
:101B2000843C9E40A105B10541F0498A5A8A6B8ADE
:101B30007C8ACE0101960E94E907CE0101960E949F
:101B4000DA0961E083E10E94F30562E370E080E07E
:101B500090E00E94DC061A83098380914B028B83FC
:101B600080914C028C8380914D0290914E02A09105
:101B70004F02B09150028D839E83AF83B8878091CE
:101B8000510290915202A0915302B0915402898760
:101B90009A87AB87BC878091550290915602A0919D
:101BA0005702B09158028D879E87AF87B88B80917E
:101BB000590290915A02A0915B02B0915C02898B0C
:101BC0009A8BAB8BBC8B80915D0290915E02A09151
:101BD0005F02B09160028D8B9E8BAF8BB88F80912E
:101BE000610290916202A0916302B0916402898FB8
:101BF0009A8FAB8FBC8F8091650290916602A09105
:101C00006702B09168028D8F9E8FAF8FB8A38091CD
:101C1000690290916A02A0916B02B0916C0289A353
:101C20009AA3ABA3BCA380916D0290916E02A09188
:101C30006F02B09170028DA39EA3AFA3B8A780914D
:101C4000710290917202A0917302B091740289A7FF
:101C50009AA7ABA7BCA780917502909176029EA728
:101C60008DA7809177028FA78091780288AB8091B1
:101C7000790290917A029AAB89AB80917B02909124
:101C80007C029CAB8BAB80917D0290917E02A091F7
:101C90007F02B09180028DAB9EABAFABB8AF8091AD
:101CA000810290918202A0918302B091840289AF57
:101CB0009AAFABAFBCAF8091850290918602A091A4
:101CC0008702B091880221968CAF9DAFAEAFBFAFB7
:101CD00021978091890290918A02A0918B02B09104
:101CE0008C0225968CAF9DAFAEAFBFAF259740E07D
:101CF00050E06AE774E4CE0101960E94440A1D8612
:101D00001E861F86188A198A1A8A1B8A1C8A1DAA8F
:101D10001EAA1FAA18AE1DA21EA21FA218A61D8AC7
:101D20001E8A1F8A188E61E871E08AEA91E00E949B
:101D3000E3006AE979E989E99EE30E942B0260E009
:101D400083E10E94F30589899A89AB89BC898C3328
:101D5000914FAF4FBF4F41F0898A9A8AAB8ABC8AB4
:101D6000CE0101960E94E907CE0101960E94DA0990
:101D700061E083E10E94F3050E946103BACD5058EF
:101D8000BB27AA270E94D70E0C9451100E94431023
:101D900038F00E944A1020F039F49F3F19F426F4DD
:101DA0000C9440100EF4E095E7FB0C943A10E92FE8
:101DB0000E94621058F3BA176207730784079507E9
:101DC00020F079F4A6F50C9484100EF4E0950B2E17
:101DD000BA2FA02D0B01B90190010C01CA01A0017D
:101DE0001124FF27591B99F0593F50F4503E68F1D8
:101DF0001A16F040A22F232F342F4427585FF3CF19
:101E0000469537952795A795F0405395C9F77EF4E9
:101E10001F16BA0B620B730B840BBAF09150A1F032
:101E2000FF0FBB1F661F771F881FC2F70EC0BA0FB8
:101E3000621F731F841F48F4879577956795B79540
:101E4000F7959E3F08F0B0CF9395880F08F099273B
:101E5000EE0F9795879508950E94161008F481E07B
:101E600008950E94450F0C9451100E944A1058F09A
:101E70000E94431040F029F45F3F29F00C943A107F
:101E800051110C9485100C9440100E94621068F35C
:101E90009923B1F3552391F3951B550BBB27AA2723
:101EA00062177307840738F09F5F5F4F220F331F5D
:101EB000441FAA1FA9F335D00E2E3AF0E0E832D025
:101EC00091505040E695001CCAF72BD0FE2F29D028
:101ED000660F771F881FBB1F261737074807AB07FA
:101EE000B0E809F0BB0B802DBF01FF2793585F4F6F
:101EF0003AF09E3F510578F00C943A100C948510FE
:101F00005F3FE4F3983ED4F3869577956795B79550
:101F1000F7959F5FC9F7880F911D9695879597F95B
:101F20000895E1E0660F771F881FBB1F62177307D4
:101F30008407BA0720F0621B730B840BBA0BEE1FE9
:101F400088F7E09508950E94AA0F6894B1110C9447
:101F5000851008950E946A1088F09F5798F0B92F55
:101F60009927B751B0F0E1F0660F771F881F991FCE
:101F70001AF0BA95C9F714C0B13091F00E948410DC
:101F8000B1E008950C948410672F782F8827B85FEC
:101F900039F0B93FCCF3869577956795B395D9F726
:101FA0003EF490958095709561957F4F8F4F9F4F30
:101FB0000895E89409C097FB3EF49095809570953C
:101FC00061957F4F8F4F9F4F9923A9F0F92F96E985
:101FD000BB279395F695879577956795B795F111FA
:101FE000F8CFFAF4BB0F11F460FF1BC06F5F7F4F97
:101FF0008F4F9F4F16C0882311F096E911C07723A9
:1020000021F09EE8872F762F05C0662371F096E8B1
:10201000862F70E060E02AF09A95660F771F881F80
:10202000DAF7880F9695879597F90895990F000824
:10203000550FAA0BE0E8FEEF16161706E807F9079A
:10204000C0F012161306E407F50798F0621B730B35
:10205000840B950B39F40A2661F0232B242B252BB6
:1020600021F408950A2609F4A140A6958FEF811D59
:10207000811D089597F99F6780E870E060E00895FA
:102080009FEF80EC089500240A9416161706180690
:102090000906089500240A9412161306140605066C
:1020A0000895092E0394000C11F4882352F0BB0FFD
:1020B00040F4BF2B11F460FF04C06F5F7F4F8F4F60
:1020C0009F4F089557FD9058440F551F59F05F3F9B
:1020D00071F04795880F97FB991F61F09F3F79F04A
:1020E00087950895121613061406551FF2CF4695CC
:1020F000F1DF08C0161617061806991FF1CF86954E
:102100007105610508940895E894BB276627772731
:10211000CB0197F908950E94161008F48FEF0895E7
:102120000E94A3100C9451100E94431038F00E949A
:102130004A1020F0952311F00C943A100C944010A2
:1021400011240C9485100E94621070F3959FC1F3C6
:10215000950F50E0551F629FF001729FBB27F00D55
:10216000B11D639FAA27F00DB11DAA1F649F6627AA
:10217000B00DA11D661F829F2227B00DA11D621FF9
:10218000739FB00DA11D621F839FA00D611D221FB3
:10219000749F3327A00D611D231F849F600D211D97
:1021A000822F762F6A2F11249F5750409AF0F1F01A
:1021B00088234AF0EE0FFF1FBB1F661F771F881F83
:1021C00091505040A9F79E3F510580F00C943A1071
:1021D0000C9485105F3FE4F3983ED4F38695779591
:1021E0006795B795F795E7959F5FC1F7FE2B880F29
:1021F000911D9695879597F9089519F416F40C9406
:1022000040100C9448110E946A10B8F39923C9F346
:10221000B6F39F57550B87FF0E9456110024A0E686
:1022200040EA900180585695979528F4805C660F97
:10223000771F881F20F026173707480730F4621BE6
:10224000730B840B202931294A2BA69517940794E8
:10225000202531254A2758F7660F771F881F20F061
:1022600026173707480730F4620B730B840B200DD9
:10227000311D411DA09581F7B901842F9158880F18
:102280009695879508950E941610880B990B0895CE
:102290009F3F31F0915020F4879577956795B795DA
:1022A000880F911D9695879597F908959150504004
:1022B000660F771F881FD2F70895A1E21A2EAA1B76
:1022C000BB1BFD010DC0AA1FBB1FEE1FFF1FA217E6
:1022D000B307E407F50720F0A21BB30BE40BF50BE3
:1022E000661F771F881F991F1A9469F7609570956C
:1022F000809590959B01AC01BD01CF010895052EFD
:1023000097FB1EF400940E94961157FD07D00E947F
:102310005D1107FC03D04EF40C9496115095409536
:10232000309521953F4F4F4F5F4F08959095809581
:10233000709561957F4F8F4F9F4F0895EE0FFF1F50
:102340000590F491E02D099481E090E0F8940C94CC
:06235000A911F894FFCF73
:10235600000000008A0597002403D10555033303C6
:1023660047030000000083065506A006F204DC04BD
:10237600A40483044F042E04D80394030000000031
:10238600E0079700910390036E616E00696E660028
:102396006F7666000D0A004D5220466C6F7720500E
:1023A60068616E746F6D2076004D5220466C6F77B3
:1023B600205068616E746F6D0050757368202773C6
:1023C600656C656374272000746F20626567696EAB
:1023D60000202D2052657472616374696E6720282F
:1023E6006D4C293A2000202D20496E6A6563746978
:0A23F6006E6720286D4C293A200084
:00000001FF
