:100000000C946D000C9495000C9495000C94950044
:100010000C9495000C9495000C9495000C9495000C
:100020000C9495000C9495000C9495000C949500FC
:100030000C9495000C9495000C9495000C949500EC
:100040000C94E6080C9495000C94B4080C948E085B
:100050000C9495000C9495000C9495000C949500CC
:100060000C9495000C949500CE02D402DA02E002C2
:10007000E602EC02F2025F0466046D0474047B0481
:100080009204820492048904000000080002010026
:100090000003040700000000000000000000000052
:1000A000250028002B0000000000240027002A0063
:1000B000040404040404040402020202020203030E
:1000C0000303030301020408102040800102040816
:1000D0001020010204081020300911241FBECFEFA8
:1000E000D8E0DEBFCDBF11E0A0E0B1E0E2E3FFE188
:1000F00002C005900D92A637B107D9F722E0A6E716
:10010000B1E001C01D92A036B207E1F710E0CDE6E4
:10011000D0E004C02197FE010E948C0FCC36D1079D
:10012000C9F70E94BB090C94970F0C94000090E053
:10013000FC01EC53FF4F2491FC01E055FF4F8491EB
:10014000882399F090E0880F991FFC01EA55FF4F32
:10015000A591B491FC01E456FF4F859194918FB71E
:10016000F894EC91E22BEC938FBF0895CF92DF923D
:10017000EF92FF920F931F93CF93DF936C017A015D
:100180008B01C0E0D0E0CE15DF0589F0D8016D917C
:100190008D01D601ED91FC910190F081E02DC60119
:1001A0000995892B11F47E0102C02196ECCFC7017D
:1001B000DF91CF911F910F91FF90EF90DF90CF9043
:1001C0000895089580E090E00895FC01538D448DDA
:1001D000252F30E0842F90E0821B930B541710F0F2
:1001E000CF96089501970895FC01918D828D9817FF
:1001F00061F0828DDF01A80FB11D5D968C91928D0B
:100200009F5F9F73928F90E008958FEF9FEF089507
:10021000FC01918D828D981731F0828DE80FF11DD0
:10022000858D90E008958FEF9FEF0895FC01918DEB
:10023000228D892F90E0805C9F4F821B91098F73E4
:10024000992708958FE791E00E94160121E0892BFC
:1002500009F420E0822F0895FC01848DDF01A80FAE
:10026000B11DA35ABF4F2C91848D90E001968F73DE
:100270009927848FA689B7892C93A089B1898C91FD
:1002800080648C93938D848D981306C00288F389C3
:10029000E02D80818F7D80830895EF92FF920F93F0
:1002A0001F93CF93DF93EC0181E0888F9B8D8C8D22
:1002B000981305C0E889F989808185FD24C0F62E50
:1002C0000B8D10E00F5F1F4F0F731127E02E8C8DE9
:1002D000E8120CC00FB607FCFACFE889F9898081D3
:1002E00085FFF5CFCE010E942C01F1CF8B8DFE0151
:1002F000E80FF11DE35AFF4FF0820B8FEA89FB896B
:100300008081806207C0EE89FF896083E889F9896E
:1003100080818064808381E090E0DF91CF911F91A4
:100320000F91FF90EF900895CF93DF93EC01888DAC
:100330008823C9F0EA89FB89808185FD05C0A889E9
:10034000B9898C9186FD0FC00FB607FCF5CF80816F
:1003500085FFF2CFA889B9898C9185FFEDCFCE01B9
:100360000E942C01E7CFDF91CF91089580E090E0CB
:10037000892B29F00E94220181110C94000008951C
:1003800090E0FC01E857FF4F3491FC01EC53FF4F24
:100390002491FC01E055FF4FE491EE2309F43BC0AA
:1003A000332339F1333091F038F43130A9F0323061
:1003B00001F584B58F7D12C0373091F03830A1F04F
:1003C0003430B9F4809180008F7D03C0809180002B
:1003D0008F77809380000DC084B58F7784BD09C06E
:1003E0008091B0008F7703C08091B0008F7D8093A3
:1003F000B000F0E0EE0FFF1FE456FF4FA591B4915F
:100400008FB7F894EC91611103C020952E2301C0A1
:100410002E2B2C938FBF08953FB7F89480917B01CA
:1004200090917C01A0917D01B0917E0126B5A89BA1
:1004300005C02F3F19F00196A11DB11D3FBFBA2F76
:10044000A92F982F8827820F911DA11DB11DBC01D6
:10045000CD0142E0660F771F881F991F4A95D1F79B
:1004600008958F929F92AF92BF92CF92DF92EF92B8
:10047000FF926B017C010E940C024B015C01C114D4
:10048000D104E104F104F1F00E940C02DC01CB0183
:1004900088199909AA09BB09883E9340A105B105AD
:1004A00070F321E0C21AD108E108F10888EE880E45
:1004B00083E0981EA11CB11CC114D104E104F10415
:1004C00019F7DDCFFF90EF90DF90CF90BF90AF9006
:1004D0009F908F900895CF93DF93FC012381222377
:1004E00029F1EC0184810E9497008D810E94970080
:1004F0008B81843011F0883029F48E810E9497001E
:100500008F8105C0833011F0863019F48E810E94EE
:1005100097008FA58F3F51F00E9497006EA581E054
:1005200068278FA5DF91CF910C94C001DF91CF9107
:100530000895CF93DF93FC0123812223A1F0EC01E6
:100540000190F081E02D0480F581E02D60E00995B7
:100550008FA58F3F41F00E9497006EA58FA5DF9178
:10056000CF910C94C001DF91CF910895CF93DF9389
:100570004770552766277727FA013197EC01A88144
:10058000B981E730F10520F4EC5CFF4F0C948C0F3F
:100590001496ED91FC91159761E029C01496ED91A8
:1005A000FC91159765E023C01496ED91FC91159789
:1005B00064E01DC01496ED91FC91159766E017C09C
:1005C0001496ED91FC91159762E011C01496ED918F
:1005D000FC9115976AE00BC01496ED91FC9115976C
:1005E00068E005C01496ED91FC91159769E0DF91E4
:1005F000CF910994CF93DF93EC01CB01BA0126E0B0
:1006000030E040E050E00E946D0F623071058105DE
:10061000910559F18CF46115710581059105F1F091
:100620006130710581059105C1F5E881F98104808A
:10063000F581E02D65E02DC06430710581059105DF
:1006400011F1D4F0653071058105910531F5E8812E
:10065000F9810480F581E02D66E01BC0E881F98115
:100660000480F581E02D64E014C0E881F981048004
:10067000F581E02D61E00DC0E881F9810480F5810C
:10068000E02D63E006C0E881F9810480F581E02D6A
:1006900062E0CE01DF91CF910994DF91CF9108956F
:1006A0004370552766277727DC01ED91FC91048084
:1006B000F581E02D423051056105710571F043303F
:1006C00051056105710559F041305105610571050C
:1006D00011F065E005C066E003C06AE001C069E0B2
:1006E0000994CF93DF93EC01CB01BA0123E030E012
:1006F00040E050E00E946D0F613071058105910569
:1007000081F0623071058105910591F0672B682BAE
:10071000692BC1F4E881F9810480F581E02D64E062
:100720000DC0E881F9810480F581E02D61E006C00B
:10073000E881F9810480F581E02D62E0CE01DF914E
:10074000CF910994DF91CF91089543705527662783
:100750007727DC01ED91FC910480F581E02D42309A
:1007600051056105710571F0433051056105710551
:1007700059F0413051056105710511F062E005C085
:1007800063E003C061E001C060E00994CF93DF93B0
:10079000EC01E881F9810480F581E02D8A818111E5
:1007A00002C060E001C062E0CE010995E881F981F4
:1007B0000480F581E02D8A81811102C061E001C0D1
:1007C00063E0CE0109958CA59DA58230910538F096
:1007D000880F991F880F991F05970197F1F7E881F6
:1007E000F9810480F581E02D8A81811102C060E0E9
:1007F00001C062E0CE01DF91CF910994CF93DF93E6
:10080000EC0120E030E0A9016C897D898E899F8907
:100810000E94790E18161CF4E8A9F9A902C0EAA9E9
:10082000FBA9DF91CF910994CF92DF92EF92FF92D3
:100830000F931F93CF93DF93FC012381243041F06A
:10084000283031F0233031F0263021F012E003C09F
:1008500014E001C013E0EC012896E12CF12CC62E27
:10086000D12C01E0C6010E2C02C0959587950A9403
:10087000E2F7688180FD6027FE01349780810E9445
:10088000C001FFEFEF1AFF0A2196E11658F3DF913E
:10089000CF911F910F91FF90EF90DF90CF9008952F
:1008A0000F931F93DC011396EC910E2F10E009308B
:1008B0001105C0F5F801E55CFF4F0C948C0FDC01CD
:1008C000ED91FC910084F185E02D29C0DC01ED91D2
:1008D000FC910284F385E02D22C0DC01ED91FC91B6
:1008E0000484F585E02D1BC0DC01ED91FC910684AC
:1008F000F785E02D14C0DC01ED91FC910088F189B1
:10090000E02D0DC0DC01ED91FC910288F389E02D12
:1009100006C0DC01ED91FC910488F589E02D1F9162
:100920000F9109941F910F9108952F923F924F922A
:100930005F926F927F928F929F92AF92BF92CF926F
:10094000DF92EF92FF920F931F93CF93DF9300D02C
:1009500000D0CDB7DEB71C01FC01C088D188E28889
:10096000F38884859585A685B785C81AD90AEA0AC9
:10097000FB0A64897589868997899B01AC010E946D
:100980007E0E4B015C01F101648D758D868D978D16
:100990009B01AC010E94AE0C9B01AC01C501B401EE
:1009A0000E941F0D0E94910DC114D104E104F104B5
:1009B000A1F462307105810591050CF07CC0F10154
:1009C00014A215A216A217A2148A158A168A178ACB
:1009D00014AA15AA16AA17AAFFC0F10104A915A9FD
:1009E00026A937A91C141D041E041F0404F51016A3
:1009F0001106120613064CF46C157D058E059F0535
:100A00005CF52281211157C027C001151105210570
:100A1000310509F450C06C157D058E059F050CF05D
:100A20004AC0F1018281882309F445C039C01016FB
:100A3000110612061306FCF40027112798010C1961
:100A40001D092E093F09601771078207930724F4D7
:100A5000F1012281222379F19B01AC01882799279A
:100A6000DC01821B930BA40BB50BF10184AB95AB9E
:100A7000A6ABB7AB20C00115110521053105D9F092
:100A80008824992454018C189D08AE08BF08681565
:100A900079058A059B057CF4F101828181110BC0E7
:100AA00030952095109501951F4F2F4F3F4F04AB68
:100AB00015AB26AB37ABF10184A895A8A6A8B7A8BB
:100AC00081149104A104B10491F480AD91ADA2AD63
:100AD000B3AD84AF95AFA6AFB7AF81E01C141D04D2
:100AE0001E041F040CF080E0F101828341C0F1017B
:100AF000C4ACD5ACE6ACF7ACA7019601C701B60112
:100B00000E94AE0C2B013C01C501B4010E94C90D2D
:100B100020E030E040E850E40E947E0E20E030E02B
:100B200040E85FE30E94AE0C9B01AC01C301B2013F
:100B30000E941F0D9B01AC01C701B6010E94AD0CC4
:100B40007B018C01F101E05CFF4F60807180C2800D
:100B5000D3809301A6010E94790E181614F0730138
:100B60008601A701B801F10144AF55AF66AF77AF79
:100B7000FFEF8F1A9F0AAF0ABF0AF10184AA95AA54
:100B8000A6AAB7AA24AD35AD46AD57ADCA01B90185
:100B900029833A834B835C830E94980DF10164A3FF
:100BA00075A386A397A329813A814B815C8160E07C
:100BB00074E284E799E40E941F0DF101648B758B48
:100BC000868B978B2281211107C0DC01CB01B058A5
:100BD000848B958BA68BB78B0F900F900F900F90F7
:100BE000DF91CF911F910F91FF90EF90DF90CF9009
:100BF000BF90AF909F908F907F906F905F904F903D
:100C00003F902F900895CF92DF92EF92FF92CF9373
:100C1000DF93EC018CA19DA1AEA1BFA1892B8A2BF2
:100C20008B2BD9F10E940C026B017C0188A599A540
:100C3000AAA5BBA5B701A601481B590B6A0B7B0BE4
:100C40008CA19DA1AEA1BFA1481759076A077B07D8
:100C500020F12A818C859D85AE85BF85222321F0D8
:100C60000196A11DB11D03C00197A109B1098C878F
:100C70009D87AE87BF87E881F9814C855D856E854C
:100C80007F850680F781E02DCE010995C8A6D9A6FB
:100C9000EAA6FBA6CE010E94950420E030E0A9015F
:100CA0006C897D898E899F890E941A0D8111B2CF2E
:100CB000488959896A897B898C859D85AE85BF85E0
:100CC000481759076A077B0709F0A4CFDF91CF9136
:100CD000FF90EF90DF90CF900895CF92DF92EF9248
:100CE000FF920F931F93CF93DF93EC016A017B0177
:100CF00020E030E0A901C701B6010E941A0D87FF6C
:100D000004C0F7FAF094F7F8F094A7019601688D03
:100D1000798D8A8D9B8D0E941A0D882309F446C017
:100D2000C88ED98EEA8EFB8E8E01005C1F4FA70104
:100D3000960160E074E284E799E40E941F0DF801D7
:100D400060837183828393838CA99DA9AEA9BFA977
:100D5000181619061A061B064CF56C897D898E89B2
:100D60009F899B01AC010E947E0E6B017C016C8D02
:100D70007D8D8E8D9F8D9B01AC010E94AE0C9B01E1
:100D8000AC01C701B6010E941F0D0E94910D6CAB12
:100D90007DAB8EAB9FABCE01DF91CF911F910F91B9
:100DA000FF90EF90DF90CF900C949504DF91CF915E
:100DB0001F910F91FF90EF90DF90CF9008950097D3
:100DC00069F0FC0101900020E9F73197AF01481B61
:100DD000590BBC018FE791E00C94B60080E090E0E5
:100DE00008958F929F92AF92BF920F931F93CF93CC
:100DF000DF93CDB7DEB7A1970FB6F894DEBF0FBE75
:100E0000CDBF19A2423008F44AE08E010F5D1F4F9A
:100E1000842E912CA12CB12CA50194010E944B0F82
:100E2000E62FB901CA0101501109EA3014F4E05D5E
:100E300001C0E95CD801EC93232B242B252B61F70F
:100E4000C8010E94DF06A1960FB6F894DEBF0FBE60
:100E5000CDBFDF91CF911F910F91BF90AF909F9029
:100E60008F9008954F925F926F927F928F929F9290
:100E7000AF92BF92CF92DF92EF92FF926B017C0113
:100E80009B01AC010E94310F882319F08CE291E0A4
:100E90001AC046015701E894B7F82FEF3FEF4FE72C
:100EA0005FE7C501B4010E94310F811110C02FEF1F
:100EB0003FEF4FE75FE7C501B4010E941A0D181616
:100EC00034F480E391E00E94DF067C018FC02FEFB5
:100ED0003FEF4FE75FE4C701B6010E94790E181695
:100EE0001CF484E391E0EFCF2FEF3FEF4FE75FEC8F
:100EF000C701B6010E941A0D87FDF3CF20E030E054
:100F0000A901C701B6010E941A0D87FF11C0E09127
:100F10007F01F09180010190F081E02D6DE28FE77B
:100F200091E009955C01F7FAF094F7F8F09402C0AB
:100F3000A12CB12C2AE037ED43EA5BE3C701B601EF
:100F40000E94AE0C2B013C010E94980D6B017C01AC
:100F50000E94C70D9B01AC01C301B2010E94AD0C00
:100F60002B013C014AE0C701B6010E94F1067C0159
:100F7000EA0CFB1CE0917F01F09180010190F0816F
:100F8000E02D6EE28FE791E00995E80EF91E20E072
:100F900030E040E251E4C301B2010E947E0E2B0119
:100FA0003C010E94980D4B01A12CB12C4AE0C501D7
:100FB000B4010E94F106E80EF91EC501B4010E94B9
:100FC000C70D9B01AC01C301B2010E94AD0C20E032
:100FD00030E040E251E40E947E0E0E94980D80E0D5
:100FE00090E04AE00E94F106E80EF91E88E391E0E5
:100FF0000E94DF068E0D9F1DFF90EF90DF90CF9037
:10100000BF90AF909F908F907F906F905F904F9028
:1010100008950E94920F4F925F926F927F928F92EB
:101020009F92AF92BF92CF92DF92EF92FF92CF93B7
:10103000DF93EC016A017B0120E030E0A901C701E8
:10104000B6010E941A0D87FF04C0F7FAF094F7F872
:10105000F0948C8C9D8CAE8CBF8CA7019601C50141
:10106000B4010E941A0D882309F449C06CA97DA916
:101070008EA99FA90E94C90D2B013C01A7019601D1
:10108000C501B4010E941F0D9B01AC01C301B20157
:101090000E947E0E0E94910D6CAB7DAB8EAB9FAB20
:1010A000A701960160E070E080E090E40E941F0DCF
:1010B0000E94F10E26E53EE04DE25FE30E947E0EC7
:1010C00020E034E244E759E40E947E0E68AF79AF35
:1010D0008AAF9BAFCC8EDD8EEE8EFF8ECE01DF9180
:1010E000CF91FF90EF90DF90CF90BF90AF909F9007
:1010F0008F907F906F905F904F900C949504DF914C
:10110000CF91FF90EF90DF90CF90BF90AF909F90E6
:101110008F907F906F905F904F9008951F920F92E5
:101120000FB60F9211242F933F934F935F936F93BA
:101130007F938F939F93AF93BF93EF93FF938FE72B
:1011400091E00E942C01FF91EF91BF91AF919F918F
:101150008F917F916F915F914F913F912F910F9060
:101160000FBE0F901F9018951F920F920FB60F92FF
:1011700011242F938F939F93EF93FF93E0918F010F
:10118000F09190018081E0919501F091960182FDAE
:1011900012C09081809198018F5F8F732091990187
:1011A000821751F0E0919801F0E0E158FE4F958FE1
:1011B0008093980101C08081FF91EF919F918F9161
:1011C0002F910F900FBE0F901F9018951F920F92A6
:1011D0000FB60F9211242F933F938F939F93AF934A
:1011E000BF938091770190917801A0917901B0919E
:1011F0007A013091760123E0230F2D3720F40196F8
:10120000A11DB11D05C026E8230F0296A11DB11D29
:10121000209376018093770190937801A0937901D0
:10122000B0937A0180917B0190917C01A0917D0126
:10123000B0917E010196A11DB11D80937B01909319
:101240007C01A0937D01B0937E01BF91AF919F91EE
:101250008F913F912F910F900FBE0F901F90189577
:10126000EFE7F1E01382128288EE93E0A0E0B0E0B5
:1012700084839583A683B78384E091E09183808300
:1012800085EC90E09587848784EC90E0978786874B
:1012900080EC90E0918B808B81EC90E0938B828B43
:1012A00082EC90E0958B848B86EC90E0978B868B1C
:1012B000118E128E138E148EECE1F2E086E191E035
:1012C0009183808381E08383148615861686178632
:1012D000108A118A128A138A148A158A168A178A22
:1012E00080E090E0A0E8BFE3808F918FA28FB38F62
:1012F000148E158E168E178E80A391A3A2A3B3A36E
:1013000014A215A216A217A221E030E035A724A747
:101310002FEF27A710A611A612A613A62FE024834D
:1013200020E1258324E0268325E0278316A614AA3E
:1013300015AA16AA17AA10AE11AE12AE13AE14AEAD
:1013400015AE16AE17AE80935C0290935D02A0932B
:101350005E02B0935F021282108611861286138697
:10136000CF010E946B0240E050E060E87FE38CE137
:1013700092E00C940B08CF93DF93CDB7DEB7C45443
:10138000D1090FB6F894DEBF0FBECDBF789484B5F7
:10139000826084BD84B5816084BD85B5826085BD71
:1013A00085B5816085BD80916E00816080936E00FF
:1013B00010928100809181008260809381008091F1
:1013C00081008160809381008091800081608093A2
:1013D00080008091B10084608093B1008091B00062
:1013E00081608093B00080917A00846080937A005D
:1013F00080917A00826080937A0080917A00816087
:1014000080937A0080917A00806880937A001092AD
:10141000C10081E10E94970082E10E94970083E170
:101420000E94970061E081E10E94C00161E082E1D9
:101430000E94C00161E083E10E94C00140E050E0F1
:101440006AE774E48CE192E00E946D0640E050E4AB
:101450006CE975E48CE192E00E940B08E0918F0149
:10146000F091900182E08083E0918B01F0918C01FA
:101470001082E0918D01F0918E0180E180831092C5
:101480009701E0919301F091940186E08083E091CF
:101490009101F0919201808180618083E0919101BE
:1014A000F0919201808188608083E0919101F091B8
:1014B0009201808180688083E0919101F091920196
:1014C00080818F7D80838BE391E00E94DF0660E066
:1014D00070E080E89FE30E94320788E391E00E9479
:1014E000DF0606E111E08CEEC82E84E0D82EE12C58
:1014F000F12C94E1892E9BEF992EAA24AA94BA2C60
:101500001A83098380911E028B8380911F028C8332
:101510008091200290912102A0912202B091230299
:101520008D839E83AF83B88780912402909125029A
:10153000A0912602B091270289879A87AB87BC8742
:101540008091280290912902A0912A02B0912B0249
:101550008D879E87AF87B88B80912C0290912D024A
:10156000A0912E02B0912F02898B9A8BAB8BBC8BF2
:101570008091300290913102A0913202B0913302F9
:101580008D8B9E8BAF8BB88F8091340290913502FA
:10159000A0913602B0913702898F9A8FAB8FBC8FA2
:1015A0008091380290913902A0913A02B0913B02A9
:1015B0008D8F9E8FAF8FB8A380913C0290913D029A
:1015C000A0913E02B0913F0289A39AA3ABA3BCA312
:1015D0008091400290914102A0914202B091430259
:1015E0008DA39EA3AFA3B8A780914402909145021A
:1015F000A0914602B091470289A79AA7ABA7BCA7C2
:1016000080914802909149029EA78DA780914A023D
:101610008FA780914B0288AB80914C0290914D0234
:101620009AAB89AB80914E0290914F029CAB8BABF1
:101630008091500290915102A0915202B0915302B8
:101640008DAB9EABAFABB8AF809154029091550279
:10165000A0915602B091570289AF9AAFABAFBCAF21
:101660008091580290915902A0915A02B0915B0268
:1016700021968CAF9DAFAEAFBFAF219780915C023A
:1016800090915D02A0915E02B0915F0225968CAFB1
:101690009DAFAEAFBFAF259740E050E06AE774E47E
:1016A000CE0101960E946D061D861E861F86188A31
:1016B000198A1A8A1B8A1C8A1DAA1EAA1FAA18AE7A
:1016C0001DA21EA21FA218A61D8A1E8A1F8A188E7E
:1016D0008DE491E00E94DF066DEC7CEC8CEC9DE3E8
:1016E0000E94320760E083E10E94C00189899A89E3
:1016F000AB89BC898C3E9440A105B10541F0C98AF3
:10170000DA8AEB8AFC8ACE0101960E949504CE010A
:1017100001960E94030661E083E10E94C00168EC2B
:1017200070E080E090E00E9431021A83098380918A
:101730001E028B8380911F028C83809120029091E6
:101740002102A0912202B09123028D839E83AF8358
:10175000B8878091240290912502A0912602B09131
:10176000270289879A87AB87BC878091280290914E
:101770002902A0912A02B0912B028D879E87AF8704
:10178000B88B80912C0290912D02A0912E02B091E5
:101790002F02898B9A8BAB8BBC8B809130029091FE
:1017A0003102A0913202B09133028D8B9E8BAF8BB0
:1017B000B88F8091340290913502A0913602B09199
:1017C0003702898F9A8FAB8FBC8F809138029091AE
:1017D0003902A0913A02B0913B028D8F9E8FAF8F5C
:1017E000B8A380913C0290913D02A0913E02B0913D
:1017F0003F0289A39AA3ABA3BCA38091400290911E
:101800004102A0914202B09143028DA39EA3AFA3D7
:10181000B8A78091440290914502A0914602B091F0
:10182000470289A79AA7ABA7BCA7809148029091CD
:1018300049029EA78DA780914A028FA780914B02F3
:1018400088AB80914C0290914D029AAB89AB80910C
:101850004E0290914F029CAB8BAB809150029091C5
:101860005102A0915202B09153028DAB9EABAFAB2F
:10187000B8AF8091540290915502A0915602B09158
:10188000570289AF9AAFABAFBCAF8091580290912D
:101890005902A0915A02B0915B0221968CAF9DAF84
:1018A000AEAFBFAF219780915C0290915D02A09195
:1018B0005E02B0915F0225968CAF9DAFAEAFBFAF19
:1018C000259740E050E06AE774E4CE0101960E945B
:1018D0006D061D861E861F86188A198A1A8A1B8A1B
:1018E0001C8A1DAA1EAA1FAA18AE1DA21EA21FA2F4
:1018F00018A61D8A1E8A1F8A188E81E691E00E9412
:10190000DF066DEC7CEC8CEC9DE30E94320760E01E
:1019100083E10E94C00189899A89AB89BC8984319D
:101920009B4FAF4FBF4F41F0898A9A8AAB8ABC8ADE
:10193000CE0101960E949504CE0101960E940306F5
:1019400061E083E10E94C00168EE73E080E090E016
:101950000E9431020E94B601D3CD5058BB27AA275E
:101960000E94C50C0C943F0E0E94310E38F00E946C
:10197000380E20F039F49F3F19F426F40C942E0E03
:101980000EF4E095E7FB0C94280EE92F0E94500E10
:1019900058F3BA17620773078407950720F079F4A4
:1019A000A6F50C94720E0EF4E0950B2EBA2FA02D16
:1019B0000B01B90190010C01CA01A0011124FF27FC
:1019C000591B99F0593F50F4503E68F11A16F040F7
:1019D000A22F232F342F4427585FF3CF46953795F6
:1019E0002795A795F0405395C9F77EF41F16BA0BBB
:1019F000620B730B840BBAF09150A1F0FF0FBB1F69
:101A0000661F771F881FC2F70EC0BA0F621F731FB1
:101A1000841F48F4879577956795B795F7959E3F0E
:101A200008F0B0CF9395880F08F09927EE0F97959F
:101A3000879508950E94040E08F481E008950E949D
:101A4000330D0C943F0E0E94380E58F00E94310E58
:101A500040F029F45F3F29F00C94280E51110C94AA
:101A6000730E0C942E0E0E94500E68F39923B1F35E
:101A7000552391F3951B550BBB27AA2762177307B4
:101A8000840738F09F5F5F4F220F331F441FAA1F48
:101A9000A9F335D00E2E3AF0E0E832D09150504004
:101AA000E695001CCAF72BD0FE2F29D0660F771FB2
:101AB000881FBB1F261737074807AB07B0E809F098
:101AC000BB0B802DBF01FF2793585F4F3AF09E3F1D
:101AD000510578F00C94280E0C94730E5F3FE4F3DC
:101AE000983ED4F3869577956795B795F7959F5F60
:101AF000C9F7880F911D9695879597F90895E1E0AC
:101B0000660F771F881FBB1F621773078407BA070A
:101B100020F0621B730B840BBA0BEE1F88F7E09565
:101B200008950E94980D6894B1110C94730E089555
:101B30000E94580E88F09F5798F0B92F9927B751F7
:101B4000B0F0E1F0660F771F881F991F1AF0BA9561
:101B5000C9F714C0B13091F00E94720EB1E008953F
:101B60000C94720E672F782F8827B85F39F0B93F31
:101B7000CCF3869577956795B395D9F73EF4909514
:101B80008095709561957F4F8F4F9F4F0895E89492
:101B900009C097FB3EF490958095709561957F4FB5
:101BA0008F4F9F4F9923A9F0F92F96E9BB27939563
:101BB000F695879577956795B795F111F8CFFAF473
:101BC000BB0F11F460FF1BC06F5F7F4F8F4F9F4FA4
:101BD00016C0882311F096E911C0772321F09EE802
:101BE000872F762F05C0662371F096E8862F70E068
:101BF00060E02AF09A95660F771F881FDAF7880F42
:101C00009695879597F90895990F0008550FAA0B97
:101C1000E0E8FEEF16161706E807F907C0F01216FF
:101C20001306E407F50798F0621B730B840B950B02
:101C300039F40A2661F0232B242B252B21F4089557
:101C40000A2609F4A140A6958FEF811D811D0895F4
:101C500097F99F6780E870E060E008959FEF80EC5F
:101C6000089500240A941616170618060906089502
:101C700000240A9412161306140605060895092E68
:101C80000394000C11F4882352F0BB0F40F4BF2BD7
:101C900011F460FF04C06F5F7F4F8F4F9F4F089517
:101CA00057FD9058440F551F59F05F3F71F047950D
:101CB000880F97FB991F61F09F3F79F087950895F2
:101CC000121613061406551FF2CF4695F1DF08C011
:101CD000161617061806991FF1CF8695710561052E
:101CE00008940895E894BB2766277727CB0197F9D6
:101CF00008950E94040E08F48FEF08950E94910E3B
:101D00000C943F0E0E94310E38F00E94380E20F0E5
:101D1000952311F00C94280E0C942E0E11240C9483
:101D2000730E0E94500E70F3959FC1F3950F50E013
:101D3000551F629FF001729FBB27F00DB11D639F7D
:101D4000AA27F00DB11DAA1F649F6627B00DA11D23
:101D5000661F829F2227B00DA11D621F739FB00DC9
:101D6000A11D621F839FA00D611D221F749F332739
:101D7000A00D611D231F849F600D211D822F762FD2
:101D80006A2F11249F5750409AF0F1F088234AF0AF
:101D9000EE0FFF1FBB1F661F771F881F915050401B
:101DA000A9F79E3F510580F00C94280E0C94730EF9
:101DB0005F3FE4F3983ED4F3869577956795B795A2
:101DC000F795E7959F5FC1F7FE2B880F911D9695BC
:101DD000879597F9089519F416F40C942E0E0C9427
:101DE000360F0E94580EB8F39923C9F3B6F39F57E4
:101DF000550B87FF0E94440F0024A0E640EA9001A3
:101E000080585695979528F4805C660F771F881F39
:101E100020F026173707480730F4621B730B840B3A
:101E2000202931294A2BA69517940794202531257E
:101E30004A2758F7660F771F881F20F026173707A5
:101E4000480730F4620B730B840B200D311D411DCC
:101E5000A09581F7B901842F9158880F96958795A1
:101E600008950E94040E880B990B08959F3F31F04E
:101E7000915020F4879577956795B795880F911DB8
:101E80009695879597F9089591505040660F771F62
:101E9000881FD2F70895A1E21A2EAA1BBB1BFD01D1
:101EA0000DC0AA1FBB1FEE1FFF1FA217B307E40739
:101EB000F50720F0A21BB30BE40BF50B661F771F91
:101EC000881F991F1A9469F7609570958095909571
:101ED0009B01AC01BD01CF010895052E97FB1EF4B7
:101EE00000940E94840F57FD07D00E944B0F07FCFF
:101EF00003D04EF40C94840F509540953095219565
:101F00003F4F4F4F5F4F0895909580957095619525
:101F10007F4F8F4F9F4F0895EE0FFF1F0590F49155
:101F2000E02D099481E090E0F8940C94970FF894D8
:021F3000FFCFE1
:101F3200000000004D01B600E50094011601F40016
:101F420008010000000099026B0214045004FE0311
:101F5200C603A50371035003FA02B6026E616E0056
:101F6200696E66006F7666000D0A004D5220466C5F
:101F72006F77205068616E746F6D207600202D207F
:101F8200496E6A656374696E6720286D4C293A2030
:101F920000202D2052657472616374696E67202877
:061FA2006D4C293A2000FD
:00000001FF
