:100000000C9462000C948A000C948A000C948A0070
:100010000C948A000C948A000C948A000C948A0038
:100020000C948A000C948A000C948A000C948A0028
:100030000C948A000C948A000C948A000C948A0018
:100040000C94DF020C948A000C94AD020C9487028D
:100050000C948A000C948A000C948A000C948A00F8
:100060000C948A000C948A000000000023002600F3
:10007000290000000008000201000003040700003E
:1000800000000000000000000000250028002B00F8
:1000900000000000240027002A00040404040404D3
:1000A0000404020202020202030303030303010227
:1000B00004081020408001020408102001020408F6
:1000C0001020EC0411241FBECFEFD8E0DEBFCDBF5F
:1000D00012E0A0E0B1E0ECE4FAE002C005900D927D
:1000E000A03CB107D9F723E0A0ECB2E001C01D921B
:1000F000AD36B207E1F710E0C2E6D0E004C02197C8
:10010000FE010E941905C136D107C9F70E942903D3
:100110000C9424050C94000090E0FC01E255FF4F84
:100120002491FC01E656FF4F8491882399F090E0DA
:10013000880F991FFC01E057FF4FA591B491FC0176
:10014000EA57FF4F859194918FB7F894EC91E22B89
:10015000EC938FBF0895CF92DF92EF92FF920F93AF
:100160001F93CF93DF936C017A018B01C0E0D0E045
:10017000CE15DF0589F0D8016D918D01D601ED9185
:10018000FC910190F081E02DC6010995892B11F4B5
:100190007E0102C02196ECCFC701DF91CF911F9164
:1001A0000F91FF90EF90DF90CF900895089580E039
:1001B00090E00895FC01538D448D252F30E0842F6D
:1001C00090E0821B930B541710F0CF96089501977F
:1001D0000895FC01918D828D981761F0828DDF0169
:1001E000A80FB11D5D968C91928D9F5F9F73928F2A
:1001F00090E008958FEF9FEF0895FC01918D828D1F
:10020000981731F0828DE80FF11D858D90E00895EB
:100210008FEF9FEF0895FC01918D228D892F90E043
:10022000805C9F4F821B91098F739927089580ED01
:1002300092E00E940B0121E0892B09F420E0822F3B
:100240000895FC01848DDF01A80FB11DA35ABF4F93
:100250002C91848D90E001968F739927848FA689C5
:10026000B7892C93A089B1898C9180648C93938DEC
:10027000848D981306C00288F389E02D80818F7DDC
:1002800080830895EF92FF920F931F93CF93DF9394
:10029000EC0181E0888F9B8D8C8D981305C0E889D7
:1002A000F989808185FD24C0F62E0B8D10E00F5F4B
:1002B0001F4F0F731127E02E8C8DE8120CC00FB664
:1002C00007FCFACFE889F989808185FFF5CFCE0157
:1002D0000E942101F1CF8B8DFE01E80FF11DE35A41
:1002E000FF4FF0820B8FEA89FB898081806207C013
:1002F000EE89FF896083E889F98980818064808341
:1003000081E090E0DF91CF911F910F91FF90EF90EE
:100310000895CF93DF93EC01888D8823C9F0EA8993
:10032000FB89808185FD05C0A889B9898C9186FDEE
:100330000FC00FB607FCF5CF808185FFF2CFA889EB
:10034000B9898C9185FFEDCFCE010E942101E7CFC5
:10035000DF91CF91089580E090E0892B29F00E94F1
:10036000170181110C9400000895833081F028F466
:10037000813099F08230A1F008958730A9F088305B
:10038000B9F08430D1F4809180008F7D03C08091DA
:1003900080008F7780938000089584B58F7702C0A6
:1003A00084B58F7D84BD08958091B0008F7703C0A0
:1003B0008091B0008F7D8093B00008951F93CF93FC
:1003C000DF93282F30E0F901EE58FF4F8491F901B7
:1003D000E255FF4FD491F901E656FF4FC491CC236B
:1003E000C9F0162F81110E94B501EC2FF0E0EE0F3D
:1003F000FF1FEA57FF4FA591B4918FB7F8941111E1
:1004000005C09C91ED2FE095E92302C0EC91ED2B06
:10041000EC938FBFDF91CF911F9108953FB7F89470
:100420008091C5029091C602A091C702B091C80206
:1004300026B5A89B05C02F3F19F00196A11DB11D3F
:100440003FBFBA2FA92F982F8827820F911DA11D7A
:10045000B11DBC01CD0142E0660F771F881F991FB7
:100460004A95D1F70895CF92DF92EF92FF920E94C2
:100470000E026B017C010E940E02DC01CB018C1983
:100480009D09AE09BF09883E9340A105B10598F3C7
:10049000FF90EF90DF90CF90089560E08FE00E9492
:1004A000DE0160E080E10E94DE0160E081E10E9407
:1004B000DE0160E082E10E94DE0161E083E10C94F4
:1004C000DE0142E050E062E171E080ED92E00C94E8
:1004D000AB00CF93DF93009779F0FC0101900020EF
:1004E000E9F73197AF01481B590BBC0180ED92E051
:1004F0000E94AB00EC0102C0C0E0D0E00E946102AB
:100500008C0F9D1FDF91CF9108950E941F051F92B0
:100510000F920FB60F9211242F933F934F935F9337
:100520006F937F938F939F93AF93BF93EF93FF93BB
:1005300080ED92E00E942101FF91EF91BF91AF9178
:100540009F918F917F916F915F914F913F912F91EB
:100550000F900FBE0F901F9018951F920F920FB61D
:100560000F9211242F938F939F93EF93FF93E0911A
:10057000E002F091E1028081E091E602F091E70271
:1005800082FD12C090818091E9028F5F8F7320916C
:10059000EA02821751F0E091E902F0E0E053FD4FEA
:1005A000958F8093E90201C08081FF91EF919F9127
:1005B0008F912F910F900FBE0F901F9018951F9243
:1005C0000F920FB60F9211242F933F938F939F9307
:1005D000AF93BF938091C1029091C202A091C302D8
:1005E000B091C4023091C00223E0230F2D3720F4D4
:1005F0000196A11DB11D05C026E8230F0296A11D7D
:10060000B11D2093C0028093C1029093C202A093B7
:10061000C302B093C4028091C5029091C602A0911A
:10062000C702B091C8020196A11DB11D8093C502F9
:100630009093C602A093C702B093C802BF91AF9136
:100640009F918F913F912F910F900FBE0F901F9010
:100650001895789484B5826084BD84B5816084BD2A
:1006600085B5826085BD85B5816085BD80916E0050
:10067000816080936E001092810080918100826081
:1006800080938100809181008160809381008091BE
:1006900080008160809380008091B10084608093AD
:1006A000B1008091B00081608093B00080917A00A9
:1006B000846080937A0080917A00826080937A00CF
:1006C00080917A00816080937A0080917A008068BE
:1006D00080937A001092C1008FE00E948C0080E12C
:1006E0000E948C0081E10E948C0082E10E948C00BB
:1006F00083E10E948C000E944D02E091E002F091A3
:10070000E10282E08083E091DC02F091DD02108260
:10071000E091DE02F091DF0280E180831092E80236
:10072000E091E402F091E50286E08083E091E2024C
:10073000F091E302808180618083E091E202F09198
:10074000E302808188608083E091E202F091E3021D
:10075000808180688083E091E202F091E3028081F1
:100760008F7D808385E191E00E9469020E94610291
:1007700089E291E00E9469028AE491E00E946902A4
:100780008DE691E00E9469028DE991E00E94690284
:100790008EEB91E00E9469020E94610232E8E32E32
:1007A00030E0F32E4EEBC42E40E0D42E5AEAA52EB4
:1007B00050E0B52EC1E0D0E080ED92E00E940B0148
:1007C000892B09F406C180ED92E00E94E900182F00
:1007D0008093CF0260E083E10E94DE01113351F586
:1007E00086EE91E00E94690260E080E10E94DE01F5
:1007F000D093CE02C093CD020091CD021091CE02D3
:10080000083E83E018079CF461E08FE00E94DE015F
:100810000E94330260E08FE00E94DE010E943302FA
:100820000F5F1F4F1093CE020093CD02E5CF8BE0F8
:1008300092E0C3C0123339F58CE192E00E94690264
:1008400061E080E10E94DE01D093CE02C093CD0230
:100850000091CD021091CE02083EE3E01E073CF766
:1008600061E08FE00E94DE010E94330260E08FE0D1
:100870000E94DE010E9433020F5F1F4F1093CE02D1
:100880000093CD02E5CF133381F584E492E00E941A
:10089000690260E080E10E94DE0161E081E10E9486
:1008A000DE0161E082E10E94DE01D093CE02C093BE
:1008B000CD020091CD021091CE02083EF3E01F0759
:1008C0000CF0B5CF61E08FE00E94DE010E943302A0
:1008D00060E08FE00E94DE010E9433020F5F1F4F35
:1008E0001093CE020093CD02E4CF143309F06AC016
:1008F00086E692E00E946902D093CE02C093CD02B8
:100900000091CD021091CE02053011050CF053C0BC
:10091000F7018491F6018490F50194909920A9F053
:1009200081110E94B501892D90E0880F991F885987
:100930009F4FFC01A591B4918C91882231E020E079
:1009400009F430E0832F922F02C080E090E0909372
:10095000CC028093CB02019711F460E001C061E00A
:1009600080E10E94DE01D093CA02C093C902809048
:10097000C9029090CA0288EE881683E09806A4F413
:1009800061E08FE00E94DE010E94330260E08FE0B0
:100990000E94DE010E943302FFEF8F1A9F0A90929D
:1009A000CA028092C902E3CF0F5F1F4F1093CE029D
:1009B0000093CD02A5CF86E992E00E9469020E94D1
:1009C000610204C088EA92E00E9469020E944D021E
:1009D000F3CE0E94AB01F0CEE0EDF2E01382128282
:1009E00088EE93E0A0E0B0E084839583A683B7838C
:1009F00084E091E09183808385EC90E09587848703
:100A000084EC90E09787868780EC90E0918B808BD8
:100A100081EC90E0938B828B82EC90E0958B848BC1
:100A200086EC90E0978B868B118E128E138E148E2F
:100A30000895EE0FFF1F0590F491E02D099481E0D9
:0C0A400090E0F8940C942405F894FFCF8B
:100A4C00000000004201AB00DA0089010B01E90053
:100A5C00FD000D0A00426567696E206D6F746F7240
:100A6C0020636F6E74726F6C00456E746572206ECD
:100A7C00756D62657220666F7220636F6E74726F33
:100A8C006C206F7074696F6E3A00312E2054757241
:100A9C006E2061742064656661756C74206D696389
:100AAC00726F73746570206D6F64652E00322E202A
:100ABC005265766572736520646972656374696FDB
:100ACC006E2061742064656661756C74206D696359
:100ADC00726F73746570206D6F64652E00332E20F9
:100AEC005475726E20617420312F387468206D69D2
:100AFC0063726F73746570206D6F64652E00342E95
:100B0C00205374657020666F727761726420616E19
:100B1C0064207265766572736520646972656374AE
:100B2C00696F6E732E004D6F76696E6720666F72FB
:100B3C00776172642061742064656661756C7420E1
:100B4C0073746570206D6F64652E00456E746572EC
:100B5C00206E6577206F7074696F6E004D6F7669CB
:100B6C006E6720696E20726576657273652061749C
:100B7C002064656661756C742073746570206D6F8C
:100B8C0064652E005374657070696E672061742003
:100B9C00312F387468206D6963726F7374657020BF
:100BAC006D6F64652E00416C7465726E61746520A6
:100BBC006265747765656E207374657070696E67B5
:100BCC0020666F727761726420616E642072657644
:100BDC00657273652E00456E746572206E657720A4
:100BEC006F7074696F6E3A00496E76616C6964203F
:100BFC006F7074696F6E20656E74657265642E001B
:00000001FF
